{
  "contractName": "ProductVerification",
  "abi": [
    {
      "inputs": [
        {
          "internalType": "string",
          "name": "productSN",
          "type": "string"
        }
      ],
      "name": "verifyProduct",
      "outputs": [
        {
          "internalType": "bool",
          "name": "",
          "type": "bool"
        }
      ],
      "stateMutability": "view",
      "type": "function"
    },
    {
      "inputs": [
        {
          "internalType": "string",
          "name": "productSN",
          "type": "string"
        },
        {
          "internalType": "bool",
          "name": "status",
          "type": "bool"
        }
      ],
      "name": "setProductStatus",
      "outputs": [],
      "stateMutability": "nonpayable",
      "type": "function"
    }
  ],
  "bytecode": "0x608060405234801561001057600080fd5b5061041d806100206000396000f3fe608060405234801561001057600080fd5b50600436106100365760003560e01c8063325fda651461003b57806392efc45314610057575b600080fd5b61005560048036038101906100509190610287565b610087565b005b610071600480360381019061006c91906102e3565b6100c1565b60405161007e919061033b565b60405180910390f35b8060008360405161009891906103d0565b908152602001604051809103902060006101000a81548160ff0219169083151502179055505050565b600080826040516100d291906103d0565b908152602001604051809103902060009054906101000a900460ff169050919050565b6000604051905090565b600080fd5b600080fd5b600080fd5b600080fd5b6000601f19601f8301169050919050565b7f4e487b7100000000000000000000000000000000000000000000000000000000600052604160045260246000fd5b61015c82610113565b810181811067ffffffffffffffff8211171561017b5761017a610124565b5b80604052505050565b600061018e6100f5565b905061019a8282610153565b919050565b600067ffffffffffffffff8211156101ba576101b9610124565b5b6101c382610113565b9050602081019050919050565b82818337600083830152505050565b60006101f26101ed8461019f565b610184565b90508281526020810184848401111561020e5761020d61010e565b5b6102198482856101d0565b509392505050565b600082601f83011261023657610235610109565b5b81356102468482602086016101df565b91505092915050565b60008115159050919050565b6102648161024f565b811461026f57600080fd5b50565b6000813590506102818161025b565b92915050565b6000806040838503121561029e5761029d6100ff565b5b600083013567ffffffffffffffff8111156102bc576102bb610104565b5b6102c885828601610221565b92505060206102d985828601610272565b9150509250929050565b6000602082840312156102f9576102f86100ff565b5b600082013567ffffffffffffffff81111561031757610316610104565b5b61032384828501610221565b91505092915050565b6103358161024f565b82525050565b6000602082019050610350600083018461032c565b92915050565b600081519050919050565b600081905092915050565b60005b8381101561038a57808201518184015260208101905061036f565b83811115610399576000848401525b50505050565b60006103aa82610356565b6103b48185610361565b93506103c481856020860161036c565b80840191505092915050565b60006103dc828461039f565b91508190509291505056fea2646970667358221220cf5c983230f4239d4a272779b9a80beb94cd7a7ee61f7f40fae7c477b784f6e264736f6c634300080c0033",
  "immutableReferences": {},
  "source": "// ProductVerification.sol\r\npragma solidity ^0.8.0;\r\n\r\ncontract ProductVerification {\r\n    mapping(string => bool) private productStatus;\r\n\r\n    function verifyProduct(string memory productSN) public view returns (bool) {\r\n        return productStatus[productSN];\r\n    }\r\n\r\n    function setProductStatus(string memory productSN, bool status) public {\r\n        productStatus[productSN] = status;\r\n    }\r\n}\r\n",
  "sourcePath": "C:\\Users\\mitde\\OneDrive\\Desktop\\A\\A\\contracts\\ProductVerification.sol",
  "compiler": {
    "name": "solc",
    "version": "0.8.12+commit.f00d7308.Emscripten.clang"
  },
  "schemaVersion": "3.4.16",
  "updatedAt": "2024-05-26T06:55:48.997Z",
  "devdoc": {
    "kind": "dev",
    "methods": {},
    "version": 1
  },
  "userdoc": {
    "kind": "user",
    "methods": {},
    "version": 1
  }
}