{
  "contractName": "Product",
  "abi": [
    {
      "inputs": [
        {
          "internalType": "string",
          "name": "",
          "type": "string"
        }
      ],
      "name": "products",
      "outputs": [
        {
          "internalType": "string",
          "name": "manufacturerId",
          "type": "string"
        },
        {
          "internalType": "string",
          "name": "productName",
          "type": "string"
        },
        {
          "internalType": "string",
          "name": "productSN",
          "type": "string"
        },
        {
          "internalType": "string",
          "name": "productBrand",
          "type": "string"
        },
        {
          "internalType": "string",
          "name": "productPrice",
          "type": "string"
        }
      ],
      "stateMutability": "view",
      "type": "function",
      "constant": true
    },
    {
      "inputs": [
        {
          "internalType": "string",
          "name": "_manufacturerId",
          "type": "string"
        },
        {
          "internalType": "string",
          "name": "_productName",
          "type": "string"
        },
        {
          "internalType": "string",
          "name": "_productSN",
          "type": "string"
        },
        {
          "internalType": "string",
          "name": "_productBrand",
          "type": "string"
        },
        {
          "internalType": "string",
          "name": "_productPrice",
          "type": "string"
        }
      ],
      "name": "addProduct",
      "outputs": [],
      "stateMutability": "nonpayable",
      "type": "function"
    },
    {
      "inputs": [
        {
          "internalType": "string",
          "name": "_productSN",
          "type": "string"
        }
      ],
      "name": "getProduct",
      "outputs": [
        {
          "internalType": "string",
          "name": "",
          "type": "string"
        },
        {
          "internalType": "string",
          "name": "",
          "type": "string"
        },
        {
          "internalType": "string",
          "name": "",
          "type": "string"
        },
        {
          "internalType": "string",
          "name": "",
          "type": "string"
        },
        {
          "internalType": "string",
          "name": "",
          "type": "string"
        }
      ],
      "stateMutability": "view",
      "type": "function",
      "constant": true
    }
  ],
  "bytecode": "0x608060405234801561001057600080fd5b50610d14806100206000396000f3fe608060405234801561001057600080fd5b50600436106100415760003560e01c80630186a4231461004657806368111cce1461007a578063ef6da8d4146100ae575b600080fd5b610060600480360381019061005b91906109dc565b6100ca565b604051610071959493929190610aad565b60405180910390f35b610094600480360381019061008f91906109dc565b6103be565b6040516100a5959493929190610aad565b60405180910390f35b6100c860048036038101906100c39190610b23565b6106f9565b005b60008180516020810182018051848252602083016020850120818352809550505050505060009150905080600001805461010390610c59565b80601f016020809104026020016040519081016040528092919081815260200182805461012f90610c59565b801561017c5780601f106101515761010080835404028352916020019161017c565b820191906000526020600020905b81548152906001019060200180831161015f57829003601f168201915b50505050509080600101805461019190610c59565b80601f01602080910402602001604051908101604052809291908181526020018280546101bd90610c59565b801561020a5780601f106101df5761010080835404028352916020019161020a565b820191906000526020600020905b8154815290600101906020018083116101ed57829003601f168201915b50505050509080600201805461021f90610c59565b80601f016020809104026020016040519081016040528092919081815260200182805461024b90610c59565b80156102985780601f1061026d57610100808354040283529160200191610298565b820191906000526020600020905b81548152906001019060200180831161027b57829003601f168201915b5050505050908060030180546102ad90610c59565b80601f01602080910402602001604051908101604052809291908181526020018280546102d990610c59565b80156103265780601f106102fb57610100808354040283529160200191610326565b820191906000526020600020905b81548152906001019060200180831161030957829003601f168201915b50505050509080600401805461033b90610c59565b80601f016020809104026020016040519081016040528092919081815260200182805461036790610c59565b80156103b45780601f10610389576101008083540402835291602001916103b4565b820191906000526020600020905b81548152906001019060200180831161039757829003601f168201915b5050505050905085565b6060806060806060600080876040516103d79190610cc7565b90815260200160405180910390206040518060a001604052908160008201805461040090610c59565b80601f016020809104026020016040519081016040528092919081815260200182805461042c90610c59565b80156104795780601f1061044e57610100808354040283529160200191610479565b820191906000526020600020905b81548152906001019060200180831161045c57829003601f168201915b5050505050815260200160018201805461049290610c59565b80601f01602080910402602001604051908101604052809291908181526020018280546104be90610c59565b801561050b5780601f106104e05761010080835404028352916020019161050b565b820191906000526020600020905b8154815290600101906020018083116104ee57829003601f168201915b5050505050815260200160028201805461052490610c59565b80601f016020809104026020016040519081016040528092919081815260200182805461055090610c59565b801561059d5780601f106105725761010080835404028352916020019161059d565b820191906000526020600020905b81548152906001019060200180831161058057829003601f168201915b505050505081526020016003820180546105b690610c59565b80601f01602080910402602001604051908101604052809291908181526020018280546105e290610c59565b801561062f5780601f106106045761010080835404028352916020019161062f565b820191906000526020600020905b81548152906001019060200180831161061257829003601f168201915b5050505050815260200160048201805461064890610c59565b80601f016020809104026020016040519081016040528092919081815260200182805461067490610c59565b80156106c15780601f10610696576101008083540402835291602001916106c1565b820191906000526020600020905b8154815290600101906020018083116106a457829003601f168201915b505050505081525050905080600001518160200151826040015183606001518460800151955095509550955095505091939590929450565b60006040518060a00160405280878152602001868152602001858152602001848152602001838152509050806000856040516107359190610cc7565b9081526020016040518091039020600082015181600001908051906020019061075f9291906107df565b50602082015181600101908051906020019061077c9291906107df565b5060408201518160020190805190602001906107999291906107df565b5060608201518160030190805190602001906107b69291906107df565b5060808201518160040190805190602001906107d39291906107df565b50905050505050505050565b8280546107eb90610c59565b90600052602060002090601f01602090048101928261080d5760008555610854565b82601f1061082657805160ff1916838001178555610854565b82800160010185558215610854579182015b82811115610853578251825591602001919060010190610838565b5b5090506108619190610865565b5090565b5b8082111561087e576000816000905550600101610866565b5090565b6000604051905090565b600080fd5b600080fd5b600080fd5b600080fd5b6000601f19601f8301169050919050565b7f4e487b7100000000000000000000000000000000000000000000000000000000600052604160045260246000fd5b6108e9826108a0565b810181811067ffffffffffffffff82111715610908576109076108b1565b5b80604052505050565b600061091b610882565b905061092782826108e0565b919050565b600067ffffffffffffffff821115610947576109466108b1565b5b610950826108a0565b9050602081019050919050565b82818337600083830152505050565b600061097f61097a8461092c565b610911565b90508281526020810184848401111561099b5761099a61089b565b5b6109a684828561095d565b509392505050565b600082601f8301126109c3576109c2610896565b5b81356109d384826020860161096c565b91505092915050565b6000602082840312156109f2576109f161088c565b5b600082013567ffffffffffffffff811115610a1057610a0f610891565b5b610a1c848285016109ae565b91505092915050565b600081519050919050565b600082825260208201905092915050565b60005b83811015610a5f578082015181840152602081019050610a44565b83811115610a6e576000848401525b50505050565b6000610a7f82610a25565b610a898185610a30565b9350610a99818560208601610a41565b610aa2816108a0565b840191505092915050565b600060a0820190508181036000830152610ac78188610a74565b90508181036020830152610adb8187610a74565b90508181036040830152610aef8186610a74565b90508181036060830152610b038185610a74565b90508181036080830152610b178184610a74565b90509695505050505050565b600080600080600060a08688031215610b3f57610b3e61088c565b5b600086013567ffffffffffffffff811115610b5d57610b5c610891565b5b610b69888289016109ae565b955050602086013567ffffffffffffffff811115610b8a57610b89610891565b5b610b96888289016109ae565b945050604086013567ffffffffffffffff811115610bb757610bb6610891565b5b610bc3888289016109ae565b935050606086013567ffffffffffffffff811115610be457610be3610891565b5b610bf0888289016109ae565b925050608086013567ffffffffffffffff811115610c1157610c10610891565b5b610c1d888289016109ae565b9150509295509295909350565b7f4e487b7100000000000000000000000000000000000000000000000000000000600052602260045260246000fd5b60006002820490506001821680610c7157607f821691505b60208210811415610c8557610c84610c2a565b5b50919050565b600081905092915050565b6000610ca182610a25565b610cab8185610c8b565b9350610cbb818560208601610a41565b80840191505092915050565b6000610cd38284610c96565b91508190509291505056fea2646970667358221220a869a6fddd602d2b820f519fe5bea27b25c32dfb990e77ea96a0994690a0c95664736f6c634300080c0033",
  "immutableReferences": {},
  "source": "// SPDX-License-Identifier: MIT\r\npragma solidity ^0.8.12;\r\n\r\n\r\ncontract Product {\r\n    struct ProductDetails {\r\n        string manufacturerId;\r\n        string productName;\r\n        string productSN;\r\n        string productBrand;\r\n        string productPrice;\r\n    }\r\n\r\n    mapping(string => ProductDetails) public products;\r\n\r\n    function addProduct(\r\n        string memory _manufacturerId,\r\n        string memory _productName,\r\n        string memory _productSN,\r\n        string memory _productBrand,\r\n        string memory _productPrice\r\n    ) public {\r\n        ProductDetails memory newProduct = ProductDetails({\r\n            manufacturerId: _manufacturerId,\r\n            productName: _productName,\r\n            productSN: _productSN,\r\n            productBrand: _productBrand,\r\n            productPrice: _productPrice\r\n        });\r\n\r\n        products[_productSN] = newProduct;\r\n    }\r\n\r\n    function getProduct(string memory _productSN)\r\n        public\r\n        view\r\n        returns (\r\n            string memory,\r\n            string memory,\r\n            string memory,\r\n            string memory,\r\n            string memory\r\n        )\r\n    {\r\n        ProductDetails memory p = products[_productSN];\r\n        return (\r\n            p.manufacturerId,\r\n            p.productName,\r\n            p.productSN,\r\n            p.productBrand,\r\n            p.productPrice\r\n        );\r\n    }\r\n}\r\n",
  "sourcePath": "C:\\Users\\mitde\\OneDrive\\Desktop\\Authify\\A\\contracts\\Product.sol",
  "compiler": {
    "name": "solc",
    "version": "0.8.12+commit.f00d7308.Emscripten.clang"
  },
  "schemaVersion": "3.4.16",
  "updatedAt": "2024-05-26T08:44:24.080Z",
  "networkType": "ethereum",
  "devdoc": {
    "kind": "dev",
    "methods": {},
    "version": 1
  },
  "userdoc": {
    "kind": "user",
    "methods": {},
    "version": 1
  }
}